{
  "contractName": "Byx88Payment",
  "abi": [
    {
      "inputs": [
        {
          "internalType": "address",
          "name": "usdtAddress_",
          "type": "address"
        }
      ],
      "stateMutability": "nonpayable",
      "type": "constructor"
    },
    {
      "anonymous": false,
      "inputs": [
        {
          "indexed": false,
          "internalType": "address",
          "name": "from",
          "type": "address"
        },
        {
          "indexed": false,
          "internalType": "address",
          "name": "to",
          "type": "address"
        }
      ],
      "name": "ChangeOwner",
      "type": "event"
    },
    {
      "anonymous": false,
      "inputs": [
        {
          "indexed": false,
          "internalType": "uint256",
          "name": "id",
          "type": "uint256"
        },
        {
          "indexed": false,
          "internalType": "uint256",
          "name": "amount",
          "type": "uint256"
        }
      ],
      "name": "DepositInit",
      "type": "event"
    },
    {
      "anonymous": false,
      "inputs": [
        {
          "indexed": false,
          "internalType": "uint256",
          "name": "amount",
          "type": "uint256"
        }
      ],
      "name": "FillBalance",
      "type": "event"
    },
    {
      "anonymous": false,
      "inputs": [
        {
          "indexed": false,
          "internalType": "uint256",
          "name": "id",
          "type": "uint256"
        }
      ],
      "name": "Revert",
      "type": "event"
    },
    {
      "anonymous": false,
      "inputs": [
        {
          "indexed": false,
          "internalType": "address payable",
          "name": "to",
          "type": "address"
        },
        {
          "indexed": false,
          "internalType": "uint256",
          "name": "amount",
          "type": "uint256"
        }
      ],
      "name": "Take",
      "type": "event"
    },
    {
      "anonymous": false,
      "inputs": [
        {
          "indexed": false,
          "internalType": "uint256",
          "name": "ref",
          "type": "uint256"
        },
        {
          "indexed": false,
          "internalType": "address",
          "name": "to",
          "type": "address"
        },
        {
          "indexed": false,
          "internalType": "uint256",
          "name": "amount",
          "type": "uint256"
        }
      ],
      "name": "Withdraw",
      "type": "event"
    },
    {
      "inputs": [],
      "name": "owner",
      "outputs": [
        {
          "internalType": "address payable",
          "name": "",
          "type": "address"
        }
      ],
      "stateMutability": "view",
      "type": "function",
      "constant": true
    },
    {
      "inputs": [],
      "name": "usdt",
      "outputs": [
        {
          "internalType": "contract IERC20",
          "name": "",
          "type": "address"
        }
      ],
      "stateMutability": "view",
      "type": "function",
      "constant": true
    },
    {
      "inputs": [],
      "name": "fill",
      "outputs": [
        {
          "internalType": "bool",
          "name": "",
          "type": "bool"
        }
      ],
      "stateMutability": "payable",
      "type": "function",
      "payable": true
    },
    {
      "inputs": [
        {
          "internalType": "uint256",
          "name": "amount",
          "type": "uint256"
        }
      ],
      "name": "take",
      "outputs": [
        {
          "internalType": "bool",
          "name": "",
          "type": "bool"
        }
      ],
      "stateMutability": "nonpayable",
      "type": "function"
    },
    {
      "inputs": [
        {
          "internalType": "address",
          "name": "source",
          "type": "address"
        },
        {
          "internalType": "uint256",
          "name": "amount",
          "type": "uint256"
        }
      ],
      "name": "deposit",
      "outputs": [
        {
          "internalType": "uint256",
          "name": "",
          "type": "uint256"
        }
      ],
      "stateMutability": "nonpayable",
      "type": "function"
    },
    {
      "inputs": [
        {
          "internalType": "uint256",
          "name": "id",
          "type": "uint256"
        }
      ],
      "name": "revert",
      "outputs": [
        {
          "internalType": "bool",
          "name": "",
          "type": "bool"
        }
      ],
      "stateMutability": "nonpayable",
      "type": "function"
    },
    {
      "inputs": [
        {
          "internalType": "uint256",
          "name": "ref",
          "type": "uint256"
        },
        {
          "internalType": "address",
          "name": "to",
          "type": "address"
        },
        {
          "internalType": "uint256",
          "name": "amount",
          "type": "uint256"
        }
      ],
      "name": "withdraw",
      "outputs": [
        {
          "internalType": "bool",
          "name": "",
          "type": "bool"
        }
      ],
      "stateMutability": "nonpayable",
      "type": "function"
    },
    {
      "inputs": [
        {
          "internalType": "uint256",
          "name": "id",
          "type": "uint256"
        }
      ],
      "name": "getDeposit",
      "outputs": [
        {
          "internalType": "address",
          "name": "sender",
          "type": "address"
        },
        {
          "internalType": "uint256",
          "name": "amount",
          "type": "uint256"
        },
        {
          "internalType": "bool",
          "name": "reverted",
          "type": "bool"
        }
      ],
      "stateMutability": "view",
      "type": "function",
      "constant": true
    },
    {
      "inputs": [
        {
          "internalType": "address payable",
          "name": "target",
          "type": "address"
        }
      ],
      "name": "transferOwnership",
      "outputs": [],
      "stateMutability": "nonpayable",
      "type": "function"
    }
  ],
  "bytecode": "0x608060405234801561001057600080fd5b506040516111143803806111148339818101604052602081101561003357600080fd5b8101908080519060200190929190505050336000806101000a81548173ffffffffffffffffffffffffffffffffffffffff021916908373ffffffffffffffffffffffffffffffffffffffff16021790555080600160006101000a81548173ffffffffffffffffffffffffffffffffffffffff021916908373ffffffffffffffffffffffffffffffffffffffff1602179055505061103f806100d56000396000f3fe6080604052600436106100865760003560e01c80639f9fb968116100595780639f9fb968146101cd578063d9c55ce114610242578063e63697c814610262578063f2fde38b146102dd578063fcc903071461032e57610086565b80632f48ab7d1461008b57806347e7ef24146100cc5780634fd9efc41461013b5780638da5cb5b1461018c575b600080fd5b34801561009757600080fd5b506100a061037f565b604051808273ffffffffffffffffffffffffffffffffffffffff16815260200191505060405180910390f35b3480156100d857600080fd5b50610125600480360360408110156100ef57600080fd5b81019080803573ffffffffffffffffffffffffffffffffffffffff169060200190929190803590602001909291905050506103a5565b6040518082815260200191505060405180910390f35b34801561014757600080fd5b506101746004803603602081101561015e57600080fd5b81019080803590602001909291905050506106f2565b60405180821515815260200191505060405180910390f35b34801561019857600080fd5b506101a16108f0565b604051808273ffffffffffffffffffffffffffffffffffffffff16815260200191505060405180910390f35b3480156101d957600080fd5b50610206600480360360208110156101f057600080fd5b8101908080359060200190929190505050610914565b604051808473ffffffffffffffffffffffffffffffffffffffff1681526020018381526020018215158152602001935050505060405180910390f35b61024a610981565b60405180821515815260200191505060405180910390f35b34801561026e57600080fd5b506102c56004803603606081101561028557600080fd5b8101908080359060200190929190803573ffffffffffffffffffffffffffffffffffffffff16906020019092919080359060200190929190505050610a83565b60405180821515815260200191505060405180910390f35b3480156102e957600080fd5b5061032c6004803603602081101561030057600080fd5b81019080803573ffffffffffffffffffffffffffffffffffffffff169060200190929190505050610c7e565b005b34801561033a57600080fd5b506103676004803603602081101561035157600080fd5b8101908080359060200190929190505050610d82565b60405180821515815260200191505060405180910390f35b600160009054906101000a900473ffffffffffffffffffffffffffffffffffffffff1681565b60008060009054906101000a900473ffffffffffffffffffffffffffffffffffffffff1673ffffffffffffffffffffffffffffffffffffffff163373ffffffffffffffffffffffffffffffffffffffff1614610469576040517f08c379a000000000000000000000000000000000000000000000000000000000815260040180806020018281038252601a8152602001807f5061796d656e743a20466f7262696464656e20616374696f6e7300000000000081525060200191505060405180910390fd5b600060028054905090506000600160009054906101000a900473ffffffffffffffffffffffffffffffffffffffff1673ffffffffffffffffffffffffffffffffffffffff166323b872dd8630876040518463ffffffff1660e01b8152600401808473ffffffffffffffffffffffffffffffffffffffff1681526020018373ffffffffffffffffffffffffffffffffffffffff1681526020018281526020019350505050602060405180830381600087803b15801561052657600080fd5b505af115801561053a573d6000803e3d6000fd5b505050506040513d602081101561055057600080fd5b81019080805190602001909291905050509050806105d6576040517f08c379a00000000000000000000000000000000000000000000000000000000081526004018080602001828103825260188152602001807f5061796d656e743a204661696c6564546f4465706f736974000000000000000081525060200191505060405180910390fd5b600260405180606001604052808773ffffffffffffffffffffffffffffffffffffffff16815260200186815260200160001515815250908060018154018082558091505060019003906000526020600020906003020160009091909190915060008201518160000160006101000a81548173ffffffffffffffffffffffffffffffffffffffff021916908373ffffffffffffffffffffffffffffffffffffffff1602179055506020820151816001015560408201518160020160006101000a81548160ff02191690831515021790555050507f5c10bf01e38ccbf6b741c50b2c4ef931cac91b18608c55b7530806441484cb518285604051808381526020018281526020019250505060405180910390a1819250505092915050565b60008060009054906101000a900473ffffffffffffffffffffffffffffffffffffffff1673ffffffffffffffffffffffffffffffffffffffff163373ffffffffffffffffffffffffffffffffffffffff16146107b6576040517f08c379a000000000000000000000000000000000000000000000000000000000815260040180806020018281038252601a8152602001807f5061796d656e743a20466f7262696464656e20616374696f6e7300000000000081525060200191505060405180910390fd5b8147101561080f576040517f08c379a0000000000000000000000000000000000000000000000000000000008152600401808060200182810382526021815260200180610fe96021913960400191505060405180910390fd5b60008054906101000a900473ffffffffffffffffffffffffffffffffffffffff1673ffffffffffffffffffffffffffffffffffffffff166108fc839081150290604051600060405180830381858888f19350505050158015610875573d6000803e3d6000fd5b507fd69eabfc802f58b2a23d16767d1fcab6551f30a60ab43a24f147d3823d7d036860008054906101000a900473ffffffffffffffffffffffffffffffffffffffff1683604051808373ffffffffffffffffffffffffffffffffffffffff1681526020018281526020019250505060405180910390a1919050565b60008054906101000a900473ffffffffffffffffffffffffffffffffffffffff1681565b6000806000806002858154811061092757fe5b906000526020600020906003020190508060000160009054906101000a900473ffffffffffffffffffffffffffffffffffffffff1681600101548260020160009054906101000a900460ff16935093509350509193909250565b60008060009054906101000a900473ffffffffffffffffffffffffffffffffffffffff1673ffffffffffffffffffffffffffffffffffffffff163373ffffffffffffffffffffffffffffffffffffffff1614610a45576040517f08c379a000000000000000000000000000000000000000000000000000000000815260040180806020018281038252601a8152602001807f5061796d656e743a20466f7262696464656e20616374696f6e7300000000000081525060200191505060405180910390fd5b7f045b758a1c3a7f4b1cecf439a11c6bd369a54dd393cfa9f8075fc3723354673e346040518082815260200191505060405180910390a16001905090565b60008060009054906101000a900473ffffffffffffffffffffffffffffffffffffffff1673ffffffffffffffffffffffffffffffffffffffff163373ffffffffffffffffffffffffffffffffffffffff1614610b47576040517f08c379a000000000000000000000000000000000000000000000000000000000815260040180806020018281038252601a8152602001807f5061796d656e743a20466f7262696464656e20616374696f6e7300000000000081525060200191505060405180910390fd5b600160009054906101000a900473ffffffffffffffffffffffffffffffffffffffff1673ffffffffffffffffffffffffffffffffffffffff1663a9059cbb84846040518363ffffffff1660e01b8152600401808373ffffffffffffffffffffffffffffffffffffffff16815260200182815260200192505050602060405180830381600087803b158015610bda57600080fd5b505af1158015610bee573d6000803e3d6000fd5b505050506040513d6020811015610c0457600080fd5b8101908080519060200190929190505050507f9da6493a92039daf47d1f2d7a782299c5994c6323eb1e972f69c432089ec52bf848484604051808481526020018373ffffffffffffffffffffffffffffffffffffffff168152602001828152602001935050505060405180910390a1600190509392505050565b60008054906101000a900473ffffffffffffffffffffffffffffffffffffffff1673ffffffffffffffffffffffffffffffffffffffff163373ffffffffffffffffffffffffffffffffffffffff1614610d3f576040517f08c379a000000000000000000000000000000000000000000000000000000000815260040180806020018281038252601a8152602001807f5061796d656e743a20466f7262696464656e20616374696f6e7300000000000081525060200191505060405180910390fd5b806000806101000a81548173ffffffffffffffffffffffffffffffffffffffff021916908373ffffffffffffffffffffffffffffffffffffffff16021790555050565b60008060009054906101000a900473ffffffffffffffffffffffffffffffffffffffff1673ffffffffffffffffffffffffffffffffffffffff163373ffffffffffffffffffffffffffffffffffffffff1614610e46576040517f08c379a000000000000000000000000000000000000000000000000000000000815260040180806020018281038252601a8152602001807f5061796d656e743a20466f7262696464656e20616374696f6e7300000000000081525060200191505060405180910390fd5b600160028381548110610e5557fe5b906000526020600020906003020160020160006101000a81548160ff021916908315150217905550600160009054906101000a900473ffffffffffffffffffffffffffffffffffffffff1673ffffffffffffffffffffffffffffffffffffffff1663a9059cbb60028481548110610ec857fe5b906000526020600020906003020160000160009054906101000a900473ffffffffffffffffffffffffffffffffffffffff1660028581548110610f0757fe5b9060005260206000209060030201600101546040518363ffffffff1660e01b8152600401808373ffffffffffffffffffffffffffffffffffffffff16815260200182815260200192505050602060405180830381600087803b158015610f6c57600080fd5b505af1158015610f80573d6000803e3d6000fd5b505050506040513d6020811015610f9657600080fd5b8101908080519060200190929190505050507f9d434160922b3be2ebb540e22251e55f8a180264254d73b5e8179ad541997ace826040518082815260200191505060405180910390a16001905091905056fe5061796d656e743a54616b653a20496e73756666696369656e7442616c616e6365a264697066735822122033850b7d0d9bc20fb09dd892f928b56c5c94164328e67866656b8f8573e3d21464736f6c634300060c0033",
  "immutableReferences": {},
  "source": "// SPDX-License-Identifier: MIT\npragma solidity >=0.4.22 <0.8.0;\n\nimport \"@openzeppelin/contracts/token/ERC20/IERC20.sol\";\n\ncontract Byx88Payment {\n    address payable public owner;\n    IERC20 public usdt;\n\n    constructor(address usdtAddress_) public {\n        owner = msg.sender;\n        usdt = IERC20(usdtAddress_);\n    }\n\n    struct Deposit {\n        address sender;\n        uint256 amount;\n        bool reverted;\n    }\n\n    Deposit[] deposits;\n\n    function fill() public payable restricted returns (bool) {\n        emit FillBalance(msg.value);\n        return true;\n    }\n\n    function take(uint256 amount) public restricted returns (bool) {\n        require(\n            address(this).balance >= amount,\n            \"Payment:Take: InsufficientBalance\"\n        );\n        owner.transfer(amount);\n        emit Take(owner, amount);\n    }\n\n    // execute deposit\n    function deposit(address source, uint256 amount)\n        public\n        restricted\n        returns (uint256)\n    {\n        uint256 id = deposits.length;\n        bool result = usdt.transferFrom(source, address(this), amount);\n        require(result, \"Payment: FailedToDeposit\");\n        deposits.push(Deposit(source, amount, false));\n        emit DepositInit(id, amount);\n        return id;\n    }\n\n    function revert(uint256 id) public restricted returns (bool) {\n        deposits[id].reverted = true;\n        usdt.transfer(deposits[id].sender, deposits[id].amount);\n        emit Revert(id);\n        return true;\n    }\n\n    function withdraw(\n        uint256 ref,\n        address to,\n        uint256 amount\n    ) public restricted returns (bool) {\n        usdt.transfer(to, amount);\n        emit Withdraw(ref, to, amount);\n        return true;\n    }\n\n    function getDeposit(uint256 id)\n        public\n        view\n        returns (\n            address sender,\n            uint256 amount, // in wei\n            bool reverted\n        )\n    {\n        Deposit storage d = deposits[id];\n        return (d.sender, d.amount, d.reverted);\n    }\n\n    function transferOwnership(address payable target) public restricted {\n        owner = target;\n    }\n\n    // allow only owner\n    modifier restricted() {\n        require(msg.sender == owner, \"Payment: Forbidden actions\");\n        _;\n    }\n\n    // id: deposit id\n    event DepositInit(uint256 id, uint256 amount);\n\n    // id: deposit id\n    event Revert(uint256 id);\n\n    // sender: eth account\n    // source: gwallet account\n    // amount: eth amount, in wei\n    event Withdraw(uint256 ref, address to, uint256 amount);\n\n    // transfer ETH to contract\n    event FillBalance(uint256 amount);\n\n    // transfer balance from contract to owner\n    event Take(address payable to, uint256 amount);\n\n    event ChangeOwner(address from, address to);\n}\n",
  "sourcePath": "/work/byx88-usdt/contracts/Byx88Payment.sol",
  "compiler": {
    "name": "solc",
    "version": "0.6.12+commit.27d51765.Emscripten.clang"
  },
  "schemaVersion": "3.3.1",
  "updatedAt": "2020-11-13T05:22:56.650Z",
  "networkType": "ethereum",
  "devdoc": {
    "kind": "dev",
    "methods": {},
    "version": 1
  },
  "userdoc": {
    "kind": "user",
    "methods": {},
    "version": 1
  }
}